{
    "_format": "hh-sol-artifact-1",
    "contractName": "KnightOwnerShip",
    "sourceName": "contracts/KnightOwnership.sol",
    "abi": [
        {
            "anonymous": false,
            "inputs": [
                {
                    "indexed": true,
                    "internalType": "address",
                    "name": "owner",
                    "type": "address"
                },
                {
                    "indexed": true,
                    "internalType": "address",
                    "name": "approved",
                    "type": "address"
                },
                {
                    "indexed": true,
                    "internalType": "uint256",
                    "name": "tokenId",
                    "type": "uint256"
                }
            ],
            "name": "Approval",
            "type": "event"
        },
        {
            "anonymous": false,
            "inputs": [
                {
                    "indexed": false,
                    "internalType": "uint256",
                    "name": "knightID",
                    "type": "uint256"
                },
                {
                    "indexed": false,
                    "internalType": "string",
                    "name": "name",
                    "type": "string"
                },
                {
                    "indexed": false,
                    "internalType": "uint256",
                    "name": "dna",
                    "type": "uint256"
                }
            ],
            "name": "NewKnight",
            "type": "event"
        },
        {
            "anonymous": false,
            "inputs": [
                {
                    "indexed": true,
                    "internalType": "address",
                    "name": "previousOwner",
                    "type": "address"
                },
                {
                    "indexed": true,
                    "internalType": "address",
                    "name": "newOwner",
                    "type": "address"
                }
            ],
            "name": "OwnershipTransferred",
            "type": "event"
        },
        {
            "anonymous": false,
            "inputs": [
                {
                    "indexed": true,
                    "internalType": "address",
                    "name": "from",
                    "type": "address"
                },
                {
                    "indexed": true,
                    "internalType": "address",
                    "name": "to",
                    "type": "address"
                },
                {
                    "indexed": true,
                    "internalType": "uint256",
                    "name": "tokenId",
                    "type": "uint256"
                }
            ],
            "name": "Transfer",
            "type": "event"
        },
        {
            "inputs": [
                {
                    "internalType": "address",
                    "name": "_to",
                    "type": "address"
                },
                {
                    "internalType": "uint256",
                    "name": "_knightID",
                    "type": "uint256"
                }
            ],
            "name": "approve",
            "outputs": [],
            "stateMutability": "nonpayable",
            "type": "function"
        },
        {
            "inputs": [
                {
                    "internalType": "uint256",
                    "name": "_attackknightID",
                    "type": "uint256"
                },
                {
                    "internalType": "uint256",
                    "name": "_defenseKnightID",
                    "type": "uint256"
                }
            ],
            "name": "attack",
            "outputs": [],
            "stateMutability": "nonpayable",
            "type": "function"
        },
        {
            "inputs": [
                {
                    "internalType": "address",
                    "name": "_owner",
                    "type": "address"
                }
            ],
            "name": "balanceOf",
            "outputs": [
                {
                    "internalType": "uint256",
                    "name": "",
                    "type": "uint256"
                }
            ],
            "stateMutability": "view",
            "type": "function"
        },
        {
            "inputs": [
                {
                    "internalType": "uint256",
                    "name": "_knightID",
                    "type": "uint256"
                },
                {
                    "internalType": "uint256",
                    "name": "_newDna",
                    "type": "uint256"
                }
            ],
            "name": "changeDna",
            "outputs": [],
            "stateMutability": "nonpayable",
            "type": "function"
        },
        {
            "inputs": [
                {
                    "internalType": "uint256",
                    "name": "_knightID",
                    "type": "uint256"
                },
                {
                    "internalType": "string",
                    "name": "_newnName",
                    "type": "string"
                }
            ],
            "name": "changeName",
            "outputs": [],
            "stateMutability": "nonpayable",
            "type": "function"
        },
        {
            "inputs": [
                {
                    "internalType": "address",
                    "name": "",
                    "type": "address"
                }
            ],
            "name": "countKnightToOwner",
            "outputs": [
                {
                    "internalType": "uint256",
                    "name": "",
                    "type": "uint256"
                }
            ],
            "stateMutability": "view",
            "type": "function"
        },
        {
            "inputs": [
                {
                    "internalType": "string",
                    "name": "_name",
                    "type": "string"
                }
            ],
            "name": "createKnight",
            "outputs": [],
            "stateMutability": "nonpayable",
            "type": "function"
        },
        {
            "inputs": [
                {
                    "internalType": "uint256",
                    "name": "_knightID",
                    "type": "uint256"
                }
            ],
            "name": "getApproved",
            "outputs": [
                {
                    "internalType": "address",
                    "name": "",
                    "type": "address"
                }
            ],
            "stateMutability": "view",
            "type": "function"
        },
        {
            "inputs": [
                {
                    "internalType": "address",
                    "name": "_owner",
                    "type": "address"
                }
            ],
            "name": "getKnightsByOwner",
            "outputs": [
                {
                    "internalType": "uint256[]",
                    "name": "",
                    "type": "uint256[]"
                }
            ],
            "stateMutability": "view",
            "type": "function"
        },
        {
            "inputs": [
                {
                    "internalType": "uint256",
                    "name": "_knightID",
                    "type": "uint256"
                }
            ],
            "name": "knightGoMassage",
            "outputs": [],
            "stateMutability": "payable",
            "type": "function"
        },
        {
            "inputs": [
                {
                    "internalType": "uint256",
                    "name": "",
                    "type": "uint256"
                }
            ],
            "name": "knightToOwner",
            "outputs": [
                {
                    "internalType": "address",
                    "name": "",
                    "type": "address"
                }
            ],
            "stateMutability": "view",
            "type": "function"
        },
        {
            "inputs": [
                {
                    "internalType": "uint256",
                    "name": "_knightID",
                    "type": "uint256"
                }
            ],
            "name": "levelUp",
            "outputs": [],
            "stateMutability": "payable",
            "type": "function"
        },
        {
            "inputs": [
                {
                    "internalType": "uint256",
                    "name": "",
                    "type": "uint256"
                }
            ],
            "name": "listOfKnight",
            "outputs": [
                {
                    "internalType": "string",
                    "name": "name",
                    "type": "string"
                },
                {
                    "internalType": "uint256",
                    "name": "dna",
                    "type": "uint256"
                },
                {
                    "internalType": "uint32",
                    "name": "level",
                    "type": "uint32"
                },
                {
                    "internalType": "uint32",
                    "name": "readyTime",
                    "type": "uint32"
                },
                {
                    "internalType": "uint16",
                    "name": "winCount",
                    "type": "uint16"
                },
                {
                    "internalType": "uint16",
                    "name": "lostCount",
                    "type": "uint16"
                },
                {
                    "internalType": "uint8",
                    "name": "excitementPoint",
                    "type": "uint8"
                }
            ],
            "stateMutability": "view",
            "type": "function"
        },
        {
            "inputs": [],
            "name": "owner",
            "outputs": [
                {
                    "internalType": "address",
                    "name": "",
                    "type": "address"
                }
            ],
            "stateMutability": "view",
            "type": "function"
        },
        {
            "inputs": [
                {
                    "internalType": "uint256",
                    "name": "_knightID",
                    "type": "uint256"
                }
            ],
            "name": "ownerOf",
            "outputs": [
                {
                    "internalType": "address",
                    "name": "",
                    "type": "address"
                }
            ],
            "stateMutability": "view",
            "type": "function"
        },
        {
            "inputs": [],
            "name": "renounceOwnership",
            "outputs": [],
            "stateMutability": "nonpayable",
            "type": "function"
        },
        {
            "inputs": [
                {
                    "internalType": "uint256",
                    "name": "_newPrice",
                    "type": "uint256"
                }
            ],
            "name": "setPaytoLevelUp",
            "outputs": [],
            "stateMutability": "nonpayable",
            "type": "function"
        },
        {
            "inputs": [
                {
                    "internalType": "address",
                    "name": "_from",
                    "type": "address"
                },
                {
                    "internalType": "address",
                    "name": "_to",
                    "type": "address"
                },
                {
                    "internalType": "uint256",
                    "name": "_knightID",
                    "type": "uint256"
                }
            ],
            "name": "transferFrom",
            "outputs": [],
            "stateMutability": "nonpayable",
            "type": "function"
        },
        {
            "inputs": [
                {
                    "internalType": "address",
                    "name": "newOwner",
                    "type": "address"
                }
            ],
            "name": "transferOwnership",
            "outputs": [],
            "stateMutability": "nonpayable",
            "type": "function"
        },
        {
            "inputs": [],
            "name": "withdraw",
            "outputs": [],
            "stateMutability": "nonpayable",
            "type": "function"
        }
    ],
    "bytecode": "0x60806040526010600155600154600a6200001a919062000194565b6002556201518060035566038d7ea4c68000600755600060085560326009553480156200004657600080fd5b50620000676200005b6200006d60201b60201c565b6200007560201b60201c565b62000317565b600033905090565b60008060009054906101000a900473ffffffffffffffffffffffffffffffffffffffff169050816000806101000a81548173ffffffffffffffffffffffffffffffffffffffff021916908373ffffffffffffffffffffffffffffffffffffffff1602179055508173ffffffffffffffffffffffffffffffffffffffff168173ffffffffffffffffffffffffffffffffffffffff167f8be0079c531659141344cd1fd0a4f28419497f9722a3daafe3b4186f6b6457e060405160405180910390a35050565b6000808291508390505b60018511156200018b57808604811115620001635762000162620002db565b5b6001851615620001735780820291505b808102905062000183856200030a565b945062000143565b94509492505050565b6000620001a182620002d1565b9150620001ae83620002d1565b9250620001dd7fffffffffffffffffffffffffffffffffffffffffffffffffffffffffffffffff8484620001e5565b905092915050565b600082620001f75760019050620002ca565b81620002075760009050620002ca565b81600181146200022057600281146200022b5762000261565b6001915050620002ca565b60ff84111562000240576200023f620002db565b5b8360020a9150848211156200025a5762000259620002db565b5b50620002ca565b5060208310610133831016604e8410600b84101617156200029b5782820a905083811115620002955762000294620002db565b5b620002ca565b620002aa848484600162000139565b92509050818404811115620002c457620002c3620002db565b5b81810290505b9392505050565b6000819050919050565b7f4e487b7100000000000000000000000000000000000000000000000000000000600052601160045260246000fd5b60008160011c9050919050565b612c9b80620003276000396000f3fe60806040526004361061011f5760003560e01c80638998832f116100a0578063c39cbef111610064578063c39cbef1146103da578063d6a8507d14610403578063e1fa763814610440578063f2fde38b14610469578063f86c6766146104925761011f565b80638998832f146102c95780638da5cb5b1461030c578063936fe67514610337578063a401e7af14610374578063b50288cd1461039d5761011f565b80633ccfd60b116100e75780633ccfd60b146101f85780635faf28801461020f5780636352211e1461023857806370a0823114610275578063715018a6146102b25761011f565b8063081812fc14610124578063095ea7b3146101615780630ce90ec21461018a57806323b872dd146101a65780632a3df95a146101cf575b600080fd5b34801561013057600080fd5b5061014b60048036038101906101469190611eb0565b6104ae565b6040516101589190612297565b60405180910390f35b34801561016d57600080fd5b5061018860048036038101906101839190611e27565b6104eb565b005b6101a4600480360381019061019f9190611eb0565b61059c565b005b3480156101b257600080fd5b506101cd60048036038101906101c89190611dd4565b610617565b005b3480156101db57600080fd5b506101f660048036038101906101f19190611e67565b610677565b005b34801561020457600080fd5b5061020d610714565b005b34801561021b57600080fd5b5061023660048036038101906102319190611f3d565b61076c565b005b34801561024457600080fd5b5061025f600480360381019061025a9190611eb0565b610890565b60405161026c9190612297565b60405180910390f35b34801561028157600080fd5b5061029c60048036038101906102979190611da7565b610942565b6040516102a9919061248a565b60405180910390f35b3480156102be57600080fd5b506102c76109fa565b005b3480156102d557600080fd5b506102f060048036038101906102eb9190611eb0565b610a0e565b60405161030397969594939291906122d4565b60405180910390f35b34801561031857600080fd5b50610321610b31565b60405161032e9190612297565b60405180910390f35b34801561034357600080fd5b5061035e60048036038101906103599190611da7565b610b5a565b60405161036b91906122b2565b60405180910390f35b34801561038057600080fd5b5061039b60048036038101906103969190611eb0565b610cad565b005b3480156103a957600080fd5b506103c460048036038101906103bf9190611eb0565b610cbf565b6040516103d19190612297565b60405180910390f35b3480156103e657600080fd5b5061040160048036038101906103fc9190611edd565b610cf2565b005b34801561040f57600080fd5b5061042a60048036038101906104259190611da7565b610e22565b604051610437919061248a565b60405180910390f35b34801561044c57600080fd5b5061046760048036038101906104629190611f3d565b610e3a565b005b34801561047557600080fd5b50610490600480360381019061048b9190611da7565b61109c565b005b6104ac60048036038101906104a79190611eb0565b611120565b005b6000600a600083815260200190815260200160002060009054906101000a900473ffffffffffffffffffffffffffffffffffffffff169050919050565b803373ffffffffffffffffffffffffffffffffffffffff166005600083815260200190815260200160002060009054906101000a900473ffffffffffffffffffffffffffffffffffffffff1673ffffffffffffffffffffffffffffffffffffffff161461058d576040517f08c379a0000000000000000000000000000000000000000000000000000000008152600401610584906123aa565b60405180910390fd5b61059783836111e8565b505050565b60075434146105aa57600080fd5b6000600482815481106105c0576105bf6128f9565b5b9060005260206000209060030201905080600201600081819054906101000a900463ffffffff16809291906105f4906127e0565b91906101000a81548163ffffffff021916908363ffffffff160217905550505050565b6106286106226112a1565b826112a9565b610667576040517f08c379a000000000000000000000000000000000000000000000000000000000815260040161065e9061234a565b60405180910390fd5b61067283838361132d565b505050565b6000600660003373ffffffffffffffffffffffffffffffffffffffff1673ffffffffffffffffffffffffffffffffffffffff16815260200190815260200160002054146106f9576040517f08c379a00000000000000000000000000000000000000000000000000000000081526004016106f0906123ea565b60405180910390fd5b600061070482611597565b905061071082826115dc565b5050565b61071c61183d565b610724610b31565b73ffffffffffffffffffffffffffffffffffffffff166108fc479081150290604051600060405180830381858888f19350505050158015610769573d6000803e3d6000fd5b50565b6014828160048281548110610784576107836128f9565b5b906000526020600020906003020160020160009054906101000a900463ffffffff1663ffffffff1610156107b757600080fd5b833373ffffffffffffffffffffffffffffffffffffffff166005600083815260200190815260200160002060009054906101000a900473ffffffffffffffffffffffffffffffffffffffff1673ffffffffffffffffffffffffffffffffffffffff1614610859576040517f08c379a0000000000000000000000000000000000000000000000000000000008152600401610850906123aa565b60405180910390fd5b60006004868154811061086f5761086e6128f9565b5b90600052602060002090600302019050848160010181905550505050505050565b6000806005600084815260200190815260200160002060009054906101000a900473ffffffffffffffffffffffffffffffffffffffff169050600073ffffffffffffffffffffffffffffffffffffffff168173ffffffffffffffffffffffffffffffffffffffff161415610939576040517f08c379a00000000000000000000000000000000000000000000000000000000081526004016109309061246a565b60405180910390fd5b80915050919050565b60008073ffffffffffffffffffffffffffffffffffffffff168273ffffffffffffffffffffffffffffffffffffffff1614156109b3576040517f08c379a00000000000000000000000000000000000000000000000000000000081526004016109aa9061240a565b60405180910390fd5b600660008373ffffffffffffffffffffffffffffffffffffffff1673ffffffffffffffffffffffffffffffffffffffff168152602001908152602001600020549050919050565b610a0261183d565b610a0c60006118bb565b565b60048181548110610a1e57600080fd5b9060005260206000209060030201600091509050806000018054610a4190612734565b80601f0160208091040260200160405190810160405280929190818152602001828054610a6d90612734565b8015610aba5780601f10610a8f57610100808354040283529160200191610aba565b820191906000526020600020905b815481529060010190602001808311610a9d57829003601f168201915b5050505050908060010154908060020160009054906101000a900463ffffffff16908060020160049054906101000a900463ffffffff16908060020160089054906101000a900461ffff169080600201600a9054906101000a900461ffff169080600201600c9054906101000a900460ff16905087565b60008060009054906101000a900473ffffffffffffffffffffffffffffffffffffffff16905090565b60606000600660008473ffffffffffffffffffffffffffffffffffffffff1673ffffffffffffffffffffffffffffffffffffffff1681526020019081526020016000205467ffffffffffffffff811115610bb757610bb6612928565b5b604051908082528060200260200182016040528015610be55781602001602082028036833780820191505090505b5090506000805b600480549050811015610ca2578473ffffffffffffffffffffffffffffffffffffffff166005600083815260200190815260200160002060009054906101000a900473ffffffffffffffffffffffffffffffffffffffff1673ffffffffffffffffffffffffffffffffffffffff161415610c8f5780838381518110610c7457610c736128f9565b5b6020026020010181815250508180610c8b90612797565b9250505b8080610c9a90612797565b915050610bec565b508192505050919050565b610cb561183d565b8060078190555050565b60056020528060005260406000206000915054906101000a900473ffffffffffffffffffffffffffffffffffffffff1681565b6002838160048281548110610d0a57610d096128f9565b5b906000526020600020906003020160020160009054906101000a900463ffffffff1663ffffffff161015610d3d57600080fd5b843373ffffffffffffffffffffffffffffffffffffffff166005600083815260200190815260200160002060009054906101000a900473ffffffffffffffffffffffffffffffffffffffff1673ffffffffffffffffffffffffffffffffffffffff1614610ddf576040517f08c379a0000000000000000000000000000000000000000000000000000000008152600401610dd6906123aa565b60405180910390fd5b600060048781548110610df557610df46128f9565b5b906000526020600020906003020190508585826000019190610e18929190611b8e565b5050505050505050565b60066020528060005260406000206000915090505481565b813373ffffffffffffffffffffffffffffffffffffffff166005600083815260200190815260200160002060009054906101000a900473ffffffffffffffffffffffffffffffffffffffff1673ffffffffffffffffffffffffffffffffffffffff1614610edc576040517f08c379a0000000000000000000000000000000000000000000000000000000008152600401610ed3906123aa565b60405180910390fd5b600060048481548110610ef257610ef16128f9565b5b90600052602060002090600302019050600060048481548110610f1857610f176128f9565b5b906000526020600020906003020190506000610f34606461197f565b905082600201600c9054906101000a900460ff1660ff16600954610f589190612599565b811161101c5782600201600881819054906101000a900461ffff168092919060010191906101000a81548161ffff021916908361ffff1602179055505082600201600081819054906101000a900463ffffffff168092919060010191906101000a81548163ffffffff021916908363ffffffff1602179055505081600201600a81819054906101000a900461ffff168092919060010191906101000a81548161ffff021916908361ffff160217905550506110178683600101546119db565b611094565b81600201600881819054906101000a900461ffff168092919060010191906101000a81548161ffff021916908361ffff1602179055505082600201600a81819054906101000a900461ffff168092919060010191906101000a81548161ffff021916908361ffff1602179055505061109383611b34565b5b505050505050565b6110a461183d565b600073ffffffffffffffffffffffffffffffffffffffff168173ffffffffffffffffffffffffffffffffffffffff161415611114576040517f08c379a000000000000000000000000000000000000000000000000000000000815260040161110b9061236a565b60405180910390fd5b61111d816118bb565b50565b600754341461112e57600080fd5b600060048281548110611144576111436128f9565b5b90600052602060002090600302019050601481600201600c9054906101000a900460ff1660ff16106111ab576040517f08c379a00000000000000000000000000000000000000000000000000000000081526004016111a29061242a565b60405180910390fd5b600281600201600c8282829054906101000a900460ff166111cc91906125ef565b92506101000a81548160ff021916908360ff1602179055505050565b81600a600083815260200190815260200160002060006101000a81548173ffffffffffffffffffffffffffffffffffffffff021916908373ffffffffffffffffffffffffffffffffffffffff160217905550808273ffffffffffffffffffffffffffffffffffffffff1661125b83610890565b73ffffffffffffffffffffffffffffffffffffffff167f8c5be1e5ebec7d5bd14f71427d1e84f3dd0314c0f7b2291e5b200ac8c7c3b92560405160405180910390a45050565b600033905090565b6000806112b583610890565b90508073ffffffffffffffffffffffffffffffffffffffff168473ffffffffffffffffffffffffffffffffffffffff16148061132457508373ffffffffffffffffffffffffffffffffffffffff1661130c846104ae565b73ffffffffffffffffffffffffffffffffffffffff16145b91505092915050565b8273ffffffffffffffffffffffffffffffffffffffff1661134d82610890565b73ffffffffffffffffffffffffffffffffffffffff16146113a3576040517f08c379a000000000000000000000000000000000000000000000000000000000815260040161139a9061238a565b60405180910390fd5b600073ffffffffffffffffffffffffffffffffffffffff168273ffffffffffffffffffffffffffffffffffffffff161415611413576040517f08c379a000000000000000000000000000000000000000000000000000000000815260040161140a906123ca565b60405180910390fd5b600a600082815260200190815260200160002060006101000a81549073ffffffffffffffffffffffffffffffffffffffff02191690556001600660008573ffffffffffffffffffffffffffffffffffffffff1673ffffffffffffffffffffffffffffffffffffffff168152602001908152602001600020600082825403925050819055506001600660008473ffffffffffffffffffffffffffffffffffffffff1673ffffffffffffffffffffffffffffffffffffffff16815260200190815260200160002060008282540192505081905550816005600083815260200190815260200160002060006101000a81548173ffffffffffffffffffffffffffffffffffffffff021916908373ffffffffffffffffffffffffffffffffffffffff160217905550808273ffffffffffffffffffffffffffffffffffffffff168473ffffffffffffffffffffffffffffffffffffffff167fddf252ad1be2c89b69c2b068fc378daa952ba7f163c4a11628f55a4df523b3ef60405160405180910390a4505050565b600080826040516020016115ab9190612243565b6040516020818303038152906040528051906020012060001c9050600254816115d4919061283b565b915050919050565b60046040518060e00160405280848152602001838152602001600163ffffffff168152602001600354426116109190612599565b63ffffffff168152602001600061ffff168152602001600061ffff168152602001600060ff168152509080600181540180825580915050600190039060005260206000209060030201600090919091909150600082015181600001908051906020019061167e929190611c14565b506020820151816001015560408201518160020160006101000a81548163ffffffff021916908363ffffffff16021790555060608201518160020160046101000a81548163ffffffff021916908363ffffffff16021790555060808201518160020160086101000a81548161ffff021916908361ffff16021790555060a082015181600201600a6101000a81548161ffff021916908361ffff16021790555060c082015181600201600c6101000a81548160ff021916908360ff1602179055505050600060016004805490506117549190612657565b9050336005600083815260200190815260200160002060006101000a81548173ffffffffffffffffffffffffffffffffffffffff021916908373ffffffffffffffffffffffffffffffffffffffff160217905550600660003373ffffffffffffffffffffffffffffffffffffffff1673ffffffffffffffffffffffffffffffffffffffff16815260200190815260200160002060008154809291906117f890612797565b91905055507fd2afe7256484dafeaf258d1cfd278ed626482ded8eee33127492a4684921720c818484604051611830939291906124a5565b60405180910390a1505050565b6118456112a1565b73ffffffffffffffffffffffffffffffffffffffff16611863610b31565b73ffffffffffffffffffffffffffffffffffffffff16146118b9576040517f08c379a00000000000000000000000000000000000000000000000000000000081526004016118b09061244a565b60405180910390fd5b565b60008060009054906101000a900473ffffffffffffffffffffffffffffffffffffffff169050816000806101000a81548173ffffffffffffffffffffffffffffffffffffffff021916908373ffffffffffffffffffffffffffffffffffffffff1602179055508173ffffffffffffffffffffffffffffffffffffffff168173ffffffffffffffffffffffffffffffffffffffff167f8be0079c531659141344cd1fd0a4f28419497f9722a3daafe3b4186f6b6457e060405160405180910390a35050565b60006008600081548092919061199490612797565b91905055508142336008546040516020016119b19392919061225a565b6040516020818303038152906040528051906020012060001c6119d4919061283b565b9050919050565b813373ffffffffffffffffffffffffffffffffffffffff166005600083815260200190815260200160002060009054906101000a900473ffffffffffffffffffffffffffffffffffffffff1673ffffffffffffffffffffffffffffffffffffffff1614611a7d576040517f08c379a0000000000000000000000000000000000000000000000000000000008152600401611a74906123aa565b60405180910390fd5b600060048481548110611a9357611a926128f9565b5b90600052602060002090600302019050611aac81611b67565b611ab557600080fd5b60025483611ac3919061283b565b925060006002848360010154611ad99190612599565b611ae39190612626565b9050611b246040518060400160405280600681526020017f4e6f4e616d650000000000000000000000000000000000000000000000000000815250826115dc565b611b2d82611b34565b5050505050565b60035442611b429190612599565b8160020160046101000a81548163ffffffff021916908363ffffffff16021790555050565b6000428260020160049054906101000a900463ffffffff1663ffffffff1611159050919050565b828054611b9a90612734565b90600052602060002090601f016020900481019282611bbc5760008555611c03565b82601f10611bd557803560ff1916838001178555611c03565b82800160010185558215611c03579182015b82811115611c02578235825591602001919060010190611be7565b5b509050611c109190611c9a565b5090565b828054611c2090612734565b90600052602060002090601f016020900481019282611c425760008555611c89565b82601f10611c5b57805160ff1916838001178555611c89565b82800160010185558215611c89579182015b82811115611c88578251825591602001919060010190611c6d565b5b509050611c969190611c9a565b5090565b5b80821115611cb3576000816000905550600101611c9b565b5090565b6000611cca611cc584612508565b6124e3565b905082815260208101848484011115611ce657611ce5612966565b5b611cf18482856126f2565b509392505050565b600081359050611d0881612c37565b92915050565b60008083601f840112611d2457611d2361295c565b5b8235905067ffffffffffffffff811115611d4157611d40612957565b5b602083019150836001820283011115611d5d57611d5c612961565b5b9250929050565b600082601f830112611d7957611d7861295c565b5b8135611d89848260208601611cb7565b91505092915050565b600081359050611da181612c4e565b92915050565b600060208284031215611dbd57611dbc612970565b5b6000611dcb84828501611cf9565b91505092915050565b600080600060608486031215611ded57611dec612970565b5b6000611dfb86828701611cf9565b9350506020611e0c86828701611cf9565b9250506040611e1d86828701611d92565b9150509250925092565b60008060408385031215611e3e57611e3d612970565b5b6000611e4c85828601611cf9565b9250506020611e5d85828601611d92565b9150509250929050565b600060208284031215611e7d57611e7c612970565b5b600082013567ffffffffffffffff811115611e9b57611e9a61296b565b5b611ea784828501611d64565b91505092915050565b600060208284031215611ec657611ec5612970565b5b6000611ed484828501611d92565b91505092915050565b600080600060408486031215611ef657611ef5612970565b5b6000611f0486828701611d92565b935050602084013567ffffffffffffffff811115611f2557611f2461296b565b5b611f3186828701611d0e565b92509250509250925092565b60008060408385031215611f5457611f53612970565b5b6000611f6285828601611d92565b9250506020611f7385828601611d92565b9150509250929050565b6000611f8983836121f0565b60208301905092915050565b611f9e8161268b565b82525050565b611fb5611fb08261268b565b61280d565b82525050565b6000611fc682612549565b611fd0818561256c565b9350611fdb83612539565b8060005b8381101561200c578151611ff38882611f7d565b9750611ffe8361255f565b925050600181019050611fdf565b5085935050505092915050565b600061202482612554565b61202e818561257d565b935061203e818560208601612701565b61204781612975565b840191505092915050565b600061205d82612554565b612067818561258e565b9350612077818560208601612701565b80840191505092915050565b6000612090602d8361257d565b915061209b82612993565b604082019050919050565b60006120b360268361257d565b91506120be826129e2565b604082019050919050565b60006120d660258361257d565b91506120e182612a31565b604082019050919050565b60006120f9601b8361257d565b915061210482612a80565b602082019050919050565b600061211c60248361257d565b915061212782612aa9565b604082019050919050565b600061213f60278361257d565b915061214a82612af8565b604082019050919050565b600061216260298361257d565b915061216d82612b47565b604082019050919050565b600061218560268361257d565b915061219082612b96565b604082019050919050565b60006121a860208361257d565b91506121b382612be5565b602082019050919050565b60006121cb60188361257d565b91506121d682612c0e565b602082019050919050565b6121ea8161269d565b82525050565b6121f9816126cb565b82525050565b612208816126cb565b82525050565b61221f61221a826126cb565b612831565b82525050565b61222e816126d5565b82525050565b61223d816126e5565b82525050565b600061224f8284612052565b915081905092915050565b6000612266828661220e565b6020820191506122768285611fa4565b601482019150612286828461220e565b602082019150819050949350505050565b60006020820190506122ac6000830184611f95565b92915050565b600060208201905081810360008301526122cc8184611fbb565b905092915050565b600060e08201905081810360008301526122ee818a612019565b90506122fd60208301896121ff565b61230a6040830188612225565b6123176060830187612225565b61232460808301866121e1565b61233160a08301856121e1565b61233e60c0830184612234565b98975050505050505050565b6000602082019050818103600083015261236381612083565b9050919050565b60006020820190508181036000830152612383816120a6565b9050919050565b600060208201905081810360008301526123a3816120c9565b9050919050565b600060208201905081810360008301526123c3816120ec565b9050919050565b600060208201905081810360008301526123e38161210f565b9050919050565b6000602082019050818103600083015261240381612132565b9050919050565b6000602082019050818103600083015261242381612155565b9050919050565b6000602082019050818103600083015261244381612178565b9050919050565b600060208201905081810360008301526124638161219b565b9050919050565b60006020820190508181036000830152612483816121be565b9050919050565b600060208201905061249f60008301846121ff565b92915050565b60006060820190506124ba60008301866121ff565b81810360208301526124cc8185612019565b90506124db60408301846121ff565b949350505050565b60006124ed6124fe565b90506124f98282612766565b919050565b6000604051905090565b600067ffffffffffffffff82111561252357612522612928565b5b61252c82612975565b9050602081019050919050565b6000819050602082019050919050565b600081519050919050565b600081519050919050565b6000602082019050919050565b600082825260208201905092915050565b600082825260208201905092915050565b600081905092915050565b60006125a4826126cb565b91506125af836126cb565b9250827fffffffffffffffffffffffffffffffffffffffffffffffffffffffffffffffff038211156125e4576125e361286c565b5b828201905092915050565b60006125fa826126e5565b9150612605836126e5565b92508260ff0382111561261b5761261a61286c565b5b828201905092915050565b6000612631826126cb565b915061263c836126cb565b92508261264c5761264b61289b565b5b828204905092915050565b6000612662826126cb565b915061266d836126cb565b9250828210156126805761267f61286c565b5b828203905092915050565b6000612696826126ab565b9050919050565b600061ffff82169050919050565b600073ffffffffffffffffffffffffffffffffffffffff82169050919050565b6000819050919050565b600063ffffffff82169050919050565b600060ff82169050919050565b82818337600083830152505050565b60005b8381101561271f578082015181840152602081019050612704565b8381111561272e576000848401525b50505050565b6000600282049050600182168061274c57607f821691505b602082108114156127605761275f6128ca565b5b50919050565b61276f82612975565b810181811067ffffffffffffffff8211171561278e5761278d612928565b5b80604052505050565b60006127a2826126cb565b91507fffffffffffffffffffffffffffffffffffffffffffffffffffffffffffffffff8214156127d5576127d461286c565b5b600182019050919050565b60006127eb826126d5565b915063ffffffff8214156128025761280161286c565b5b600182019050919050565b60006128188261281f565b9050919050565b600061282a82612986565b9050919050565b6000819050919050565b6000612846826126cb565b9150612851836126cb565b9250826128615761286061289b565b5b828206905092915050565b7f4e487b7100000000000000000000000000000000000000000000000000000000600052601160045260246000fd5b7f4e487b7100000000000000000000000000000000000000000000000000000000600052601260045260246000fd5b7f4e487b7100000000000000000000000000000000000000000000000000000000600052602260045260246000fd5b7f4e487b7100000000000000000000000000000000000000000000000000000000600052603260045260246000fd5b7f4e487b7100000000000000000000000000000000000000000000000000000000600052604160045260246000fd5b600080fd5b600080fd5b600080fd5b600080fd5b600080fd5b600080fd5b6000601f19601f8301169050919050565b60008160601b9050919050565b7f4552433732313a2063616c6c6572206973206e6f7420746f6b656e206f776e6560008201527f72206f7220617070726f76656400000000000000000000000000000000000000602082015250565b7f4f776e61626c653a206e6577206f776e657220697320746865207a65726f206160008201527f6464726573730000000000000000000000000000000000000000000000000000602082015250565b7f4552433732313a207472616e736665722066726f6d20696e636f72726563742060008201527f6f776e6572000000000000000000000000000000000000000000000000000000602082015250565b7f496e76616c6964206f776e6572206f6620746865204b6e696768740000000000600082015250565b7f4552433732313a207472616e7366657220746f20746865207a65726f2061646460008201527f7265737300000000000000000000000000000000000000000000000000000000602082015250565b7f4372656174652061206b6e69676874206f6e6c7920666f72207468652066697260008201527f73742074696d6500000000000000000000000000000000000000000000000000602082015250565b7f4552433732313a2061646472657373207a65726f206973206e6f74206120766160008201527f6c6964206f776e65720000000000000000000000000000000000000000000000602082015250565b7f4b6e6967687420686173206d61786564206f7574206578636974656d656e742060008201527f706f696e74730000000000000000000000000000000000000000000000000000602082015250565b7f4f776e61626c653a2063616c6c6572206973206e6f7420746865206f776e6572600082015250565b7f4552433732313a20696e76616c696420746f6b656e2049440000000000000000600082015250565b612c408161268b565b8114612c4b57600080fd5b50565b612c57816126cb565b8114612c6257600080fd5b5056fea2646970667358221220ae86ad843088ae2f1cb9beeedc81da9fafd52c2de3f026d68346cbabe61136c664736f6c63430008070033",
    "linkReferences": {},
    "deployedLinkReferences": {}
}